{
  "contractName": "TokenFactory",
  "abi": [
    {
      "inputs": [
        {
          "internalType": "address",
          "name": "_piesCoinAddress",
          "type": "address"
        }
      ],
      "stateMutability": "nonpayable",
      "type": "constructor"
    },
    {
      "inputs": [],
      "name": "piesCoinAddress",
      "outputs": [
        {
          "internalType": "address",
          "name": "",
          "type": "address"
        }
      ],
      "stateMutability": "view",
      "type": "function"
    },
    {
      "inputs": [
        {
          "internalType": "uint256",
          "name": "",
          "type": "uint256"
        }
      ],
      "name": "tokens",
      "outputs": [
        {
          "internalType": "string",
          "name": "name",
          "type": "string"
        },
        {
          "internalType": "string",
          "name": "symbol",
          "type": "string"
        },
        {
          "internalType": "address",
          "name": "contractAddress",
          "type": "address"
        }
      ],
      "stateMutability": "view",
      "type": "function"
    },
    {
      "inputs": [
        {
          "internalType": "string",
          "name": "name",
          "type": "string"
        },
        {
          "internalType": "string",
          "name": "symbol",
          "type": "string"
        },
        {
          "internalType": "uint256",
          "name": "initialSupply",
          "type": "uint256"
        }
      ],
      "name": "createToken",
      "outputs": [],
      "stateMutability": "nonpayable",
      "type": "function"
    },
    {
      "inputs": [],
      "name": "getTokens",
      "outputs": [
        {
          "components": [
            {
              "internalType": "string",
              "name": "name",
              "type": "string"
            },
            {
              "internalType": "string",
              "name": "symbol",
              "type": "string"
            },
            {
              "internalType": "address",
              "name": "contractAddress",
              "type": "address"
            }
          ],
          "internalType": "struct TokenFactory.Token[]",
          "name": "",
          "type": "tuple[]"
        }
      ],
      "stateMutability": "view",
      "type": "function"
    }
  ],
  "bytecode": "0x608060405234801561000f575f80fd5b50604051620025a3380380620025a3833981810160405281019061003391906100d7565b8060015f6101000a81548173ffffffffffffffffffffffffffffffffffffffff021916908373ffffffffffffffffffffffffffffffffffffffff16021790555050610102565b5f80fd5b5f73ffffffffffffffffffffffffffffffffffffffff82169050919050565b5f6100a68261007d565b9050919050565b6100b68161009c565b81146100c0575f80fd5b50565b5f815190506100d1816100ad565b92915050565b5f602082840312156100ec576100eb610079565b5b5f6100f9848285016100c3565b91505092915050565b61249380620001105f395ff3fe608060405234801562000010575f80fd5b506004361062000050575f3560e01c80634f64b2be14620000545780635b060530146200008c5780638f6bf50414620000ac578063aa6ca80814620000ce575b5f80fd5b6200007260048036038101906200006c9190620005ca565b620000f0565b6040516200008393929190620006d1565b60405180910390f35b620000aa6004803603810190620000a4919062000862565b62000260565b005b620000b66200036d565b604051620000c59190620008f9565b60405180910390f35b620000d862000392565b604051620000e7919062000a98565b60405180910390f35b5f8181548110620000ff575f80fd5b905f5260205f2090600302015f91509050805f018054620001209062000ae7565b80601f01602080910402602001604051908101604052809291908181526020018280546200014e9062000ae7565b80156200019d5780601f1062000173576101008083540402835291602001916200019d565b820191905f5260205f20905b8154815290600101906020018083116200017f57829003601f168201915b505050505090806001018054620001b49062000ae7565b80601f0160208091040260200160405190810160405280929190818152602001828054620001e29062000ae7565b8015620002315780601f10620002075761010080835404028352916020019162000231565b820191905f5260205f20905b8154815290600101906020018083116200021357829003601f168201915b505050505090806002015f9054906101000a900473ffffffffffffffffffffffffffffffffffffffff16905083565b5f81604051620002709062000573565b6200027c919062000b2c565b604051809103905ff08015801562000296573d5f803e3d5ffd5b5090505f60405180606001604052808681526020018581526020018373ffffffffffffffffffffffffffffffffffffffff16815250908060018154018082558091505060019003905f5260205f2090600302015f909190919091505f820151815f01908162000306919062000d0a565b5060208201518160010190816200031e919062000d0a565b506040820151816002015f6101000a81548173ffffffffffffffffffffffffffffffffffffffff021916908373ffffffffffffffffffffffffffffffffffffffff160217905550505050505050565b60015f9054906101000a900473ffffffffffffffffffffffffffffffffffffffff1681565b60605f805480602002602001604051908101604052809291908181526020015f905b828210156200056a578382905f5260205f2090600302016040518060600160405290815f82018054620003e79062000ae7565b80601f0160208091040260200160405190810160405280929190818152602001828054620004159062000ae7565b8015620004645780601f106200043a5761010080835404028352916020019162000464565b820191905f5260205f20905b8154815290600101906020018083116200044657829003601f168201915b505050505081526020016001820180546200047f9062000ae7565b80601f0160208091040260200160405190810160405280929190818152602001828054620004ad9062000ae7565b8015620004fc5780601f10620004d257610100808354040283529160200191620004fc565b820191905f5260205f20905b815481529060010190602001808311620004de57829003601f168201915b50505050508152602001600282015f9054906101000a900473ffffffffffffffffffffffffffffffffffffffff1673ffffffffffffffffffffffffffffffffffffffff1673ffffffffffffffffffffffffffffffffffffffff168152505081526020019060010190620003b4565b50505050905090565b61166f8062000def83390190565b5f604051905090565b5f80fd5b5f80fd5b5f819050919050565b620005a68162000592565b8114620005b1575f80fd5b50565b5f81359050620005c4816200059b565b92915050565b5f60208284031215620005e257620005e16200058a565b5b5f620005f184828501620005b4565b91505092915050565b5f81519050919050565b5f82825260208201905092915050565b5f5b838110156200063357808201518184015260208101905062000616565b5f8484015250505050565b5f601f19601f8301169050919050565b5f6200065a82620005fa565b62000666818562000604565b93506200067881856020860162000614565b62000683816200063e565b840191505092915050565b5f73ffffffffffffffffffffffffffffffffffffffff82169050919050565b5f620006b9826200068e565b9050919050565b620006cb81620006ad565b82525050565b5f6060820190508181035f830152620006eb81866200064e565b905081810360208301526200070181856200064e565b9050620007126040830184620006c0565b949350505050565b5f80fd5b5f80fd5b7f4e487b71000000000000000000000000000000000000000000000000000000005f52604160045260245ffd5b6200075a826200063e565b810181811067ffffffffffffffff821117156200077c576200077b62000722565b5b80604052505050565b5f6200079062000581565b90506200079e82826200074f565b919050565b5f67ffffffffffffffff821115620007c057620007bf62000722565b5b620007cb826200063e565b9050602081019050919050565b828183375f83830152505050565b5f620007fc620007f684620007a3565b62000785565b9050828152602081018484840111156200081b576200081a6200071e565b5b62000828848285620007d8565b509392505050565b5f82601f8301126200084757620008466200071a565b5b813562000859848260208601620007e6565b91505092915050565b5f805f606084860312156200087c576200087b6200058a565b5b5f84013567ffffffffffffffff8111156200089c576200089b6200058e565b5b620008aa8682870162000830565b935050602084013567ffffffffffffffff811115620008ce57620008cd6200058e565b5b620008dc8682870162000830565b9250506040620008ef86828701620005b4565b9150509250925092565b5f6020820190506200090e5f830184620006c0565b92915050565b5f81519050919050565b5f82825260208201905092915050565b5f819050602082019050919050565b5f82825260208201905092915050565b5f6200095982620005fa565b6200096581856200093d565b93506200097781856020860162000614565b62000982816200063e565b840191505092915050565b6200099881620006ad565b82525050565b5f606083015f8301518482035f860152620009ba82826200094d565b91505060208301518482036020860152620009d682826200094d565b9150506040830151620009ed60408601826200098d565b508091505092915050565b5f62000a0583836200099e565b905092915050565b5f602082019050919050565b5f62000a258262000914565b62000a3181856200091e565b93508360208202850162000a45856200092e565b805f5b8581101562000a86578484038952815162000a648582620009f8565b945062000a718362000a0d565b925060208a0199505060018101905062000a48565b50829750879550505050505092915050565b5f6020820190508181035f83015262000ab2818462000a19565b905092915050565b7f4e487b71000000000000000000000000000000000000000000000000000000005f52602260045260245ffd5b5f600282049050600182168062000aff57607f821691505b60208210810362000b155762000b1462000aba565b5b50919050565b62000b268162000592565b82525050565b5f60208201905062000b415f83018462000b1b565b92915050565b5f819050815f5260205f209050919050565b5f6020601f8301049050919050565b5f82821b905092915050565b5f6008830262000ba57fffffffffffffffffffffffffffffffffffffffffffffffffffffffffffffffff8262000b68565b62000bb1868362000b68565b95508019841693508086168417925050509392505050565b5f819050919050565b5f62000bf262000bec62000be68462000592565b62000bc9565b62000592565b9050919050565b5f819050919050565b62000c0d8362000bd2565b62000c2562000c1c8262000bf9565b84845462000b74565b825550505050565b5f90565b62000c3b62000c2d565b62000c4881848462000c02565b505050565b5b8181101562000c6f5762000c635f8262000c31565b60018101905062000c4e565b5050565b601f82111562000cbe5762000c888162000b47565b62000c938462000b59565b8101602085101562000ca3578190505b62000cbb62000cb28562000b59565b83018262000c4d565b50505b505050565b5f82821c905092915050565b5f62000ce05f198460080262000cc3565b1980831691505092915050565b5f62000cfa838362000ccf565b9150826002028217905092915050565b62000d1582620005fa565b67ffffffffffffffff81111562000d315762000d3062000722565b5b62000d3d825462000ae7565b62000d4a82828562000c73565b5f60209050601f83116001811462000d80575f841562000d6b578287015190505b62000d77858262000ced565b86555062000de6565b601f19841662000d908662000b47565b5f5b8281101562000db95784890151825560018201915060208501945060208101905062000d92565b8683101562000dd9578489015162000dd5601f89168262000ccf565b8355505b6001600288020188555050505b50505050505056fe608060405234801562000010575f80fd5b506040516200166f3803806200166f8339818101604052810190620000369190620003cb565b6040518060400160405280600981526020017f5069657320436f696e00000000000000000000000000000000000000000000008152506040518060400160405280600481526020017f50494553000000000000000000000000000000000000000000000000000000008152508160039081620000b3919062000656565b508060049081620000c5919062000656565b505050620000da3382620000e160201b60201c565b5062000866565b5f73ffffffffffffffffffffffffffffffffffffffff168273ffffffffffffffffffffffffffffffffffffffff160362000154575f6040517fec442f050000000000000000000000000000000000000000000000000000000081526004016200014b91906200077d565b60405180910390fd5b620001675f83836200016b60201b60201c565b5050565b5f73ffffffffffffffffffffffffffffffffffffffff168373ffffffffffffffffffffffffffffffffffffffff1603620001bf578060025f828254620001b29190620007c5565b9250508190555062000290565b5f805f8573ffffffffffffffffffffffffffffffffffffffff1673ffffffffffffffffffffffffffffffffffffffff1681526020019081526020015f20549050818110156200024b578381836040517fe450d38c000000000000000000000000000000000000000000000000000000008152600401620002429392919062000810565b60405180910390fd5b8181035f808673ffffffffffffffffffffffffffffffffffffffff1673ffffffffffffffffffffffffffffffffffffffff1681526020019081526020015f2081905550505b5f73ffffffffffffffffffffffffffffffffffffffff168273ffffffffffffffffffffffffffffffffffffffff1603620002d9578060025f828254039250508190555062000323565b805f808473ffffffffffffffffffffffffffffffffffffffff1673ffffffffffffffffffffffffffffffffffffffff1681526020019081526020015f205f82825401925050819055505b8173ffffffffffffffffffffffffffffffffffffffff168373ffffffffffffffffffffffffffffffffffffffff167fddf252ad1be2c89b69c2b068fc378daa952ba7f163c4a11628f55a4df523b3ef836040516200038291906200084b565b60405180910390a3505050565b5f80fd5b5f819050919050565b620003a78162000393565b8114620003b2575f80fd5b50565b5f81519050620003c5816200039c565b92915050565b5f60208284031215620003e357620003e26200038f565b5b5f620003f284828501620003b5565b91505092915050565b5f81519050919050565b7f4e487b71000000000000000000000000000000000000000000000000000000005f52604160045260245ffd5b7f4e487b71000000000000000000000000000000000000000000000000000000005f52602260045260245ffd5b5f60028204905060018216806200047757607f821691505b6020821081036200048d576200048c62000432565b5b50919050565b5f819050815f5260205f209050919050565b5f6020601f8301049050919050565b5f82821b905092915050565b5f60088302620004f17fffffffffffffffffffffffffffffffffffffffffffffffffffffffffffffffff82620004b4565b620004fd8683620004b4565b95508019841693508086168417925050509392505050565b5f819050919050565b5f6200053e62000538620005328462000393565b62000515565b62000393565b9050919050565b5f819050919050565b62000559836200051e565b62000571620005688262000545565b848454620004c0565b825550505050565b5f90565b6200058762000579565b620005948184846200054e565b505050565b5b81811015620005bb57620005af5f826200057d565b6001810190506200059a565b5050565b601f8211156200060a57620005d48162000493565b620005df84620004a5565b81016020851015620005ef578190505b62000607620005fe85620004a5565b83018262000599565b50505b505050565b5f82821c905092915050565b5f6200062c5f19846008026200060f565b1980831691505092915050565b5f6200064683836200061b565b9150826002028217905092915050565b6200066182620003fb565b67ffffffffffffffff8111156200067d576200067c62000405565b5b6200068982546200045f565b62000696828285620005bf565b5f60209050601f831160018114620006cc575f8415620006b7578287015190505b620006c3858262000639565b86555062000732565b601f198416620006dc8662000493565b5f5b828110156200070557848901518255600182019150602085019450602081019050620006de565b8683101562000725578489015162000721601f8916826200061b565b8355505b6001600288020188555050505b505050505050565b5f73ffffffffffffffffffffffffffffffffffffffff82169050919050565b5f62000765826200073a565b9050919050565b620007778162000759565b82525050565b5f602082019050620007925f8301846200076c565b92915050565b7f4e487b71000000000000000000000000000000000000000000000000000000005f52601160045260245ffd5b5f620007d18262000393565b9150620007de8362000393565b9250828201905080821115620007f957620007f862000798565b5b92915050565b6200080a8162000393565b82525050565b5f606082019050620008255f8301866200076c565b620008346020830185620007ff565b620008436040830184620007ff565b949350505050565b5f602082019050620008605f830184620007ff565b92915050565b610dfb80620008745f395ff3fe608060405234801561000f575f80fd5b5060043610610091575f3560e01c8063313ce56711610064578063313ce5671461013157806370a082311461014f57806395d89b411461017f578063a9059cbb1461019d578063dd62ed3e146101cd57610091565b806306fdde0314610095578063095ea7b3146100b357806318160ddd146100e357806323b872dd14610101575b5f80fd5b61009d6101fd565b6040516100aa9190610a74565b60405180910390f35b6100cd60048036038101906100c89190610b25565b61028d565b6040516100da9190610b7d565b60405180910390f35b6100eb6102af565b6040516100f89190610ba5565b60405180910390f35b61011b60048036038101906101169190610bbe565b6102b8565b6040516101289190610b7d565b60405180910390f35b6101396102e6565b6040516101469190610c29565b60405180910390f35b61016960048036038101906101649190610c42565b6102ee565b6040516101769190610ba5565b60405180910390f35b610187610333565b6040516101949190610a74565b60405180910390f35b6101b760048036038101906101b29190610b25565b6103c3565b6040516101c49190610b7d565b60405180910390f35b6101e760048036038101906101e29190610c6d565b6103e5565b6040516101f49190610ba5565b60405180910390f35b60606003805461020c90610cd8565b80601f016020809104026020016040519081016040528092919081815260200182805461023890610cd8565b80156102835780601f1061025a57610100808354040283529160200191610283565b820191905f5260205f20905b81548152906001019060200180831161026657829003601f168201915b5050505050905090565b5f80610297610467565b90506102a481858561046e565b600191505092915050565b5f600254905090565b5f806102c2610467565b90506102cf858285610480565b6102da858585610512565b60019150509392505050565b5f6012905090565b5f805f8373ffffffffffffffffffffffffffffffffffffffff1673ffffffffffffffffffffffffffffffffffffffff1681526020019081526020015f20549050919050565b60606004805461034290610cd8565b80601f016020809104026020016040519081016040528092919081815260200182805461036e90610cd8565b80156103b95780601f10610390576101008083540402835291602001916103b9565b820191905f5260205f20905b81548152906001019060200180831161039c57829003601f168201915b5050505050905090565b5f806103cd610467565b90506103da818585610512565b600191505092915050565b5f60015f8473ffffffffffffffffffffffffffffffffffffffff1673ffffffffffffffffffffffffffffffffffffffff1681526020019081526020015f205f8373ffffffffffffffffffffffffffffffffffffffff1673ffffffffffffffffffffffffffffffffffffffff1681526020019081526020015f2054905092915050565b5f33905090565b61047b8383836001610602565b505050565b5f61048b84846103e5565b90507fffffffffffffffffffffffffffffffffffffffffffffffffffffffffffffffff811461050c57818110156104fd578281836040517ffb8f41b20000000000000000000000000000000000000000000000000000000081526004016104f493929190610d17565b60405180910390fd5b61050b84848484035f610602565b5b50505050565b5f73ffffffffffffffffffffffffffffffffffffffff168373ffffffffffffffffffffffffffffffffffffffff1603610582575f6040517f96c6fd1e0000000000000000000000000000000000000000000000000000000081526004016105799190610d4c565b60405180910390fd5b5f73ffffffffffffffffffffffffffffffffffffffff168273ffffffffffffffffffffffffffffffffffffffff16036105f2575f6040517fec442f050000000000000000000000000000000000000000000000000000000081526004016105e99190610d4c565b60405180910390fd5b6105fd8383836107d1565b505050565b5f73ffffffffffffffffffffffffffffffffffffffff168473ffffffffffffffffffffffffffffffffffffffff1603610672575f6040517fe602df050000000000000000000000000000000000000000000000000000000081526004016106699190610d4c565b60405180910390fd5b5f73ffffffffffffffffffffffffffffffffffffffff168373ffffffffffffffffffffffffffffffffffffffff16036106e2575f6040517f94280d620000000000000000000000000000000000000000000000000000000081526004016106d99190610d4c565b60405180910390fd5b8160015f8673ffffffffffffffffffffffffffffffffffffffff1673ffffffffffffffffffffffffffffffffffffffff1681526020019081526020015f205f8573ffffffffffffffffffffffffffffffffffffffff1673ffffffffffffffffffffffffffffffffffffffff1681526020019081526020015f208190555080156107cb578273ffffffffffffffffffffffffffffffffffffffff168473ffffffffffffffffffffffffffffffffffffffff167f8c5be1e5ebec7d5bd14f71427d1e84f3dd0314c0f7b2291e5b200ac8c7c3b925846040516107c29190610ba5565b60405180910390a35b50505050565b5f73ffffffffffffffffffffffffffffffffffffffff168373ffffffffffffffffffffffffffffffffffffffff1603610821578060025f8282546108159190610d92565b925050819055506108ef565b5f805f8573ffffffffffffffffffffffffffffffffffffffff1673ffffffffffffffffffffffffffffffffffffffff1681526020019081526020015f20549050818110156108aa578381836040517fe450d38c0000000000000000000000000000000000000000000000000000000081526004016108a193929190610d17565b60405180910390fd5b8181035f808673ffffffffffffffffffffffffffffffffffffffff1673ffffffffffffffffffffffffffffffffffffffff1681526020019081526020015f2081905550505b5f73ffffffffffffffffffffffffffffffffffffffff168273ffffffffffffffffffffffffffffffffffffffff1603610936578060025f8282540392505081905550610980565b805f808473ffffffffffffffffffffffffffffffffffffffff1673ffffffffffffffffffffffffffffffffffffffff1681526020019081526020015f205f82825401925050819055505b8173ffffffffffffffffffffffffffffffffffffffff168373ffffffffffffffffffffffffffffffffffffffff167fddf252ad1be2c89b69c2b068fc378daa952ba7f163c4a11628f55a4df523b3ef836040516109dd9190610ba5565b60405180910390a3505050565b5f81519050919050565b5f82825260208201905092915050565b5f5b83811015610a21578082015181840152602081019050610a06565b5f8484015250505050565b5f601f19601f8301169050919050565b5f610a46826109ea565b610a5081856109f4565b9350610a60818560208601610a04565b610a6981610a2c565b840191505092915050565b5f6020820190508181035f830152610a8c8184610a3c565b905092915050565b5f80fd5b5f73ffffffffffffffffffffffffffffffffffffffff82169050919050565b5f610ac182610a98565b9050919050565b610ad181610ab7565b8114610adb575f80fd5b50565b5f81359050610aec81610ac8565b92915050565b5f819050919050565b610b0481610af2565b8114610b0e575f80fd5b50565b5f81359050610b1f81610afb565b92915050565b5f8060408385031215610b3b57610b3a610a94565b5b5f610b4885828601610ade565b9250506020610b5985828601610b11565b9150509250929050565b5f8115159050919050565b610b7781610b63565b82525050565b5f602082019050610b905f830184610b6e565b92915050565b610b9f81610af2565b82525050565b5f602082019050610bb85f830184610b96565b92915050565b5f805f60608486031215610bd557610bd4610a94565b5b5f610be286828701610ade565b9350506020610bf386828701610ade565b9250506040610c0486828701610b11565b9150509250925092565b5f60ff82169050919050565b610c2381610c0e565b82525050565b5f602082019050610c3c5f830184610c1a565b92915050565b5f60208284031215610c5757610c56610a94565b5b5f610c6484828501610ade565b91505092915050565b5f8060408385031215610c8357610c82610a94565b5b5f610c9085828601610ade565b9250506020610ca185828601610ade565b9150509250929050565b7f4e487b71000000000000000000000000000000000000000000000000000000005f52602260045260245ffd5b5f6002820490506001821680610cef57607f821691505b602082108103610d0257610d01610cab565b5b50919050565b610d1181610ab7565b82525050565b5f606082019050610d2a5f830186610d08565b610d376020830185610b96565b610d446040830184610b96565b949350505050565b5f602082019050610d5f5f830184610d08565b92915050565b7f4e487b71000000000000000000000000000000000000000000000000000000005f52601160045260245ffd5b5f610d9c82610af2565b9150610da783610af2565b9250828201905080821115610dbf57610dbe610d65565b5b9291505056fea26469706673582212207f74d2145c1ae81af5bf497e225ad574c640b4abeae9584060f274f1e0dab57864736f6c63430008150033a2646970667358221220555727a9144292cc926ef317f2cf9320aff90895a127416b9ed58310bc5603c764736f6c63430008150033",
  "immutableReferences": {},
  "source": "// contracts/TokenFactory.sol\r\n// SPDX-License-Identifier: MIT\r\npragma solidity ^0.8.0;\r\n\r\nimport \"./PiesCoin.sol\";\r\n\r\ncontract TokenFactory {\r\n    struct Token {\r\n        string name;\r\n        string symbol;\r\n        address contractAddress;\r\n    }\r\n    \r\n    Token[] public tokens;\r\n    address public piesCoinAddress;\r\n\r\n    constructor(address _piesCoinAddress) {\r\n        piesCoinAddress = _piesCoinAddress;\r\n    }\r\n\r\n    function createToken(string memory name, string memory symbol, uint256 initialSupply) public {\r\n        PiesCoin newToken = new PiesCoin(initialSupply);\r\n        tokens.push(Token({\r\n            name: name,\r\n            symbol: symbol,\r\n            contractAddress: address(newToken)\r\n        }));\r\n    }\r\n\r\n    function getTokens() public view returns (Token[] memory) {\r\n        return tokens;\r\n    }\r\n}\r\n",
  "sourcePath": "C:\\Users\\CEO-FOUNER-HTS\\Desktop\\New blockchain\\pies-coin-platform\\contracts\\TokenFactory.sol",
  "compiler": {
    "name": "solc",
    "version": "0.8.21+commit.d9974bed.Emscripten.clang"
  },
  "schemaVersion": "3.4.16",
  "updatedAt": "2024-07-02T22:19:25.473Z",
  "devdoc": {
    "kind": "dev",
    "methods": {},
    "version": 1
  },
  "userdoc": {
    "kind": "user",
    "methods": {},
    "version": 1
  }
}